{
  "contractName": "ADokenSale",
  "abi": [
    {
      "constant": true,
      "inputs": [],
      "name": "tokenSold",
      "outputs": [
        {
          "name": "",
          "type": "uint256"
        }
      ],
      "payable": false,
      "stateMutability": "view",
      "type": "function"
    },
    {
      "constant": true,
      "inputs": [],
      "name": "tokenPrice",
      "outputs": [
        {
          "name": "",
          "type": "uint256"
        }
      ],
      "payable": false,
      "stateMutability": "view",
      "type": "function"
    },
    {
      "constant": true,
      "inputs": [],
      "name": "ADokencontract",
      "outputs": [
        {
          "name": "",
          "type": "address"
        }
      ],
      "payable": false,
      "stateMutability": "view",
      "type": "function"
    },
    {
      "inputs": [
        {
          "name": "_adokencontract",
          "type": "address"
        },
        {
          "name": "_tokenprice",
          "type": "uint256"
        }
      ],
      "payable": false,
      "stateMutability": "nonpayable",
      "type": "constructor"
    },
    {
      "anonymous": false,
      "inputs": [
        {
          "indexed": false,
          "name": "_buyer",
          "type": "address"
        },
        {
          "indexed": false,
          "name": "_amount",
          "type": "uint256"
        }
      ],
      "name": "Sell",
      "type": "event"
    },
    {
      "constant": false,
      "inputs": [
        {
          "name": "_noOfTokens",
          "type": "uint256"
        }
      ],
      "name": "buyTokens",
      "outputs": [],
      "payable": true,
      "stateMutability": "payable",
      "type": "function"
    },
    {
      "constant": false,
      "inputs": [],
      "name": "endSale",
      "outputs": [],
      "payable": false,
      "stateMutability": "nonpayable",
      "type": "function"
    }
  ],
  "bytecode": "0x608060405234801561001057600080fd5b5060405160408061085f833981018060405281019080805190602001909291908051906020019092919050505033600160006101000a81548173ffffffffffffffffffffffffffffffffffffffff021916908373ffffffffffffffffffffffffffffffffffffffff160217905550816000806101000a81548173ffffffffffffffffffffffffffffffffffffffff021916908373ffffffffffffffffffffffffffffffffffffffff160217905550806002819055505050610789806100d66000396000f30060806040526004361061006d576000357c0100000000000000000000000000000000000000000000000000000000900463ffffffff1680633610724e14610072578063380d831b14610092578063519ee19e146100a95780637ff9b596146100d4578063ea924bdd146100ff575b600080fd5b61009060048036038101908080359060200190929190505050610156565b005b34801561009e57600080fd5b506100a76103fc565b005b3480156100b557600080fd5b506100be6106fc565b6040518082815260200191505060405180910390f35b3480156100e057600080fd5b506100e9610702565b6040518082815260200191505060405180910390f35b34801561010b57600080fd5b50610114610708565b604051808273ffffffffffffffffffffffffffffffffffffffff1673ffffffffffffffffffffffffffffffffffffffff16815260200191505060405180910390f35b6101628160025461072d565b3414151561016f57600080fd5b806000809054906101000a900473ffffffffffffffffffffffffffffffffffffffff1673ffffffffffffffffffffffffffffffffffffffff166370a08231306040518263ffffffff167c0100000000000000000000000000000000000000000000000000000000028152600401808273ffffffffffffffffffffffffffffffffffffffff1673ffffffffffffffffffffffffffffffffffffffff168152602001915050602060405180830381600087803b15801561022c57600080fd5b505af1158015610240573d6000803e3d6000fd5b505050506040513d602081101561025657600080fd5b81019080805190602001909291905050501015151561027457600080fd5b6000809054906101000a900473ffffffffffffffffffffffffffffffffffffffff1673ffffffffffffffffffffffffffffffffffffffff1663a9059cbb33836040518363ffffffff167c0100000000000000000000000000000000000000000000000000000000028152600401808373ffffffffffffffffffffffffffffffffffffffff1673ffffffffffffffffffffffffffffffffffffffff16815260200182815260200192505050602060405180830381600087803b15801561033857600080fd5b505af115801561034c573d6000803e3d6000fd5b505050506040513d602081101561036257600080fd5b8101908080519060200190929190505050151561037e57600080fd5b806003600082825401925050819055507f5e5e995ce3133561afceaa51a9a154d5db228cd7525d34df5185582c18d3df093382604051808373ffffffffffffffffffffffffffffffffffffffff1673ffffffffffffffffffffffffffffffffffffffff1681526020018281526020019250505060405180910390a150565b600160009054906101000a900473ffffffffffffffffffffffffffffffffffffffff1673ffffffffffffffffffffffffffffffffffffffff163373ffffffffffffffffffffffffffffffffffffffff1614151561045857600080fd5b6000809054906101000a900473ffffffffffffffffffffffffffffffffffffffff1673ffffffffffffffffffffffffffffffffffffffff1663a9059cbb600160009054906101000a900473ffffffffffffffffffffffffffffffffffffffff166000809054906101000a900473ffffffffffffffffffffffffffffffffffffffff1673ffffffffffffffffffffffffffffffffffffffff166370a08231306040518263ffffffff167c0100000000000000000000000000000000000000000000000000000000028152600401808273ffffffffffffffffffffffffffffffffffffffff1673ffffffffffffffffffffffffffffffffffffffff168152602001915050602060405180830381600087803b15801561057457600080fd5b505af1158015610588573d6000803e3d6000fd5b505050506040513d602081101561059e57600080fd5b81019080805190602001909291905050506040518363ffffffff167c0100000000000000000000000000000000000000000000000000000000028152600401808373ffffffffffffffffffffffffffffffffffffffff1673ffffffffffffffffffffffffffffffffffffffff16815260200182815260200192505050602060405180830381600087803b15801561063457600080fd5b505af1158015610648573d6000803e3d6000fd5b505050506040513d602081101561065e57600080fd5b8101908080519060200190929190505050151561067a57600080fd5b600160009054906101000a900473ffffffffffffffffffffffffffffffffffffffff1673ffffffffffffffffffffffffffffffffffffffff166108fc3073ffffffffffffffffffffffffffffffffffffffff16319081150290604051600060405180830381858888f193505050501580156106f9573d6000803e3d6000fd5b50565b60035481565b60025481565b6000809054906101000a900473ffffffffffffffffffffffffffffffffffffffff1681565b60008082148061074c5750828283850292508281151561074957fe5b04145b151561075757600080fd5b929150505600a165627a7a723058207b232ed472219e908d5cf85d3745488fb41252a9476be4d8c0a4683b24039d310029",
  "source": "pragma solidity ^0.4.19;\r\n\r\nimport \"./ADoken.sol\";\r\n\r\n\r\n\r\ncontract ADokenSale {\r\n\t\r\n\tADoken public ADokencontract;\r\n\taddress admin;\r\n\tuint public tokenPrice;\r\n\tuint public tokenSold;\r\n\r\n\tevent Sell(address _buyer, uint _amount);\r\n\r\n\tconstructor (ADoken _adokencontract, uint _tokenprice) {\r\n\t\tadmin = msg.sender;\r\n\t\tADokencontract = _adokencontract;\r\n\t\ttokenPrice = _tokenprice;\r\n\r\n\r\n\t}\r\n\r\n\tfunction multiply(uint x, uint y) internal pure returns (uint z) {\r\n        require(y == 0 || (z = x * y) / y == x);\r\n    }\r\n\r\n\tfunction buyTokens (uint _noOfTokens) public payable {\r\n\r\n\t\trequire(msg.value == multiply(_noOfTokens, tokenPrice)); //require that value is equal to tokens\r\n\t\t\r\n\t\trequire(ADokencontract.balanceOf(this) >= _noOfTokens); //require that there are enough token in this contract\r\n\t\t\r\n\t\trequire(ADokencontract.transfer(msg.sender, _noOfTokens)); //buy functionality\r\n\t\t\r\n\t\ttokenSold += _noOfTokens; //keep track of tokens sold\r\n\r\n\t\tSell(msg.sender, _noOfTokens); //trigger the event\r\n\t\t\r\n\t}\r\n\r\n\tfunction endSale() public {\r\n\r\n\t\trequire(msg.sender == admin);  //require that only admin can end the sale\r\n\r\n\t\trequire (ADokencontract.transfer(admin, ADokencontract.balanceOf(this))); //transfer the leftover balance to admin\r\n\t\tadmin.transfer(address(this).balance); //transfer the balance to the admin\r\n\t\t\r\n\t\t\r\n\t\t\r\n\t}\r\n\t\r\n\r\n\t\r\n}\r\n",
  "sourcePath": "C:\\Users\\Adi\\ADoken\\contracts\\ADokenSale.sol",
  "compiler": {
    "name": "solc",
    "version": "0.4.24+commit.e67f0147.Emscripten.clang"
  },
  "schemaVersion": "2.0.1",
  "updatedAt": "2018-11-19T10:53:08.613Z"
}